{
  "_format": "hh-sol-artifact-1",
  "contractName": "Cat",
  "sourceName": "contracts/Cat.sol",
  "abi": [
    {
      "inputs": [],
      "stateMutability": "nonpayable",
      "type": "constructor"
    },
    {
      "inputs": [],
      "name": "makeSound",
      "outputs": [
        {
          "internalType": "string",
          "name": "",
          "type": "string"
        }
      ],
      "stateMutability": "view",
      "type": "function"
    },
    {
      "inputs": [],
      "name": "species",
      "outputs": [
        {
          "internalType": "string",
          "name": "",
          "type": "string"
        }
      ],
      "stateMutability": "view",
      "type": "function"
    }
  ],
  "bytecode": "0x608060405234801561001057600080fd5b5060408051808201909152600381526210d85d60ea1b6020820152600061003782826100dd565b505061019b565b634e487b7160e01b600052604160045260246000fd5b600181811c9082168061006857607f821691505b60208210810361008857634e487b7160e01b600052602260045260246000fd5b50919050565b601f8211156100d857806000526020600020601f840160051c810160208510156100b55750805b601f840160051c820191505b818110156100d557600081556001016100c1565b50505b505050565b81516001600160401b038111156100f6576100f661003e565b61010a816101048454610054565b8461008e565b6020601f82116001811461013e57600083156101265750848201515b600019600385901b1c1916600184901b1784556100d5565b600084815260208120601f198516915b8281101561016e578785015182556020948501946001909201910161014e565b508482101561018c5786840151600019600387901b60f8161c191681555b50505050600190811b01905550565b6101c5806101aa6000396000f3fe608060405234801561001057600080fd5b50600436106100365760003560e01c80639dd807b11461003b578063ab117c3e14610059575b600080fd5b610043610079565b6040516100509190610107565b60405180910390f35b6040805180820190915260048152634d656f7760e01b6020820152610043565b6000805461008690610155565b80601f01602080910402602001604051908101604052809291908181526020018280546100b290610155565b80156100ff5780601f106100d4576101008083540402835291602001916100ff565b820191906000526020600020905b8154815290600101906020018083116100e257829003601f168201915b505050505081565b602081526000825180602084015260005b818110156101355760208186018101516040868401015201610118565b506000604082850101526040601f19601f83011684010191505092915050565b600181811c9082168061016957607f821691505b60208210810361018957634e487b7160e01b600052602260045260246000fd5b5091905056fea2646970667358221220079059283db50e6e043aa733c6a4fa0b23dd12c877e7369e9027ec6cbd0db7ac64736f6c634300081c0033",
  "linkReferences": {},
  "deployedLinkReferences": {}
}